S02500004C61626F7261746F72696F355F4E657374686F724775696C6C65726D6F2E737265635A
S11300000C9434000C9451000C9451000C94510045
S11300100C9451000C9451000C9451000C940A015E
S11300200C9451000C9451000C9451000C94510008
S11300300C9451000C9451000C9451000C945100F8
S11300400C9451000C9451000C9451000C945100E8
S11300500C9451000C948E000C9451000C9451009B
S11300600C9451000C94510011241FBECFEFD8E022
S1130070DEBFCDBF11E0A0E0B1E0E0E1F3E002C0FB
S113008005900D92A430B107D9F721E0A4E0B1E0C6
S113009001C01D92A930B207E1F70E944C010C94F3
S11300A086010C94000084B1866084B982EA80934E
S11300B0800082E1809381008FE39CE99093870024
S11300C08093860080E89CE0909389008093880068
S11300D090938B0080938A000895A0EBB0E01C926B
S11300E082E08093B100E0E7F0E081E08083109249
S11300F0B20080E48093B3008C9182608C93808101
S113010082608083089586E680937C00EAE7F0E0CD
S11301108FE8808380818064808308951F920F928A
S11301200FB60F9211242F933F934F935F936F93C6
S11301307F938F939F93AF93BF93EF93FF9380919C
S11301400201863009F52091790030E030930801EE
S113015020930701A0E6B9E00E9477012FEF30E079
S113016040E050E00E945501205E3C4F30938900EE
S113017020938800ECE7F0E08081807F87608083B3
S113018087E08093020130C0873009F5209179001F
S113019030E03093060120930501A0E6B9E00E9407
S11301A077012FEF30E040E050E00E945501205EDF
S11301B03C4F30938B0020938A00ECE7F0E0808181
S11301C0807F8560808385E0809302010DC08091EB
S11301D0790080930101ECE7F0E08081807F866004
S11301E0808386E080930201EAE7F0E08081806406
S11301F08083FF91EF91BF91AF919F918F917F91F8
S11302006F915F914F913F912F910F900FBE0F907F
S11302101F9018951F920F920FB60F9211248F936F
S11302209F93809104018F5F809304018091040166
S1130230811107C08BB180618BB981E0809300018B
S11302400FC09091040180910101981748F08091AA
S11302500001882329F08BB18F7E8BB910920001A5
S11302609F918F910F900FBE0F901F901895F89447
S113027087B18F7187B988B18F7188B98AB180616C
S11302808AB98BB18F7E8BB90E9453000E946D0096
S11302900E948300789408950E9437018FE99FE0BB
S11302A00197F1F700C00000F9CFA1E21A2EAA1BB2
S11302B0BB1BFD010DC0AA1FBB1FEE1FFF1FA21712
S11302C0B307E407F50720F0A21BB30BE40BF50B0F
S11302D0661F771F881F991F1A9469F76095709598
S11302E0809590959B01AC01BD01CF010895A29F1B
S11302F0B001B39FC001A39F700D811D1124911DF6
S1130300B29F700D811D1124911D0895F894FFCFA3
S1070310018006005E
S9030000FC
